:020000040800F2
:100000000028002019100008A90F0008AF0F0008F1
:10001000B50F0008BB0F0008C10F0008000000006A
:10002000000000000000000000000000C70F0008F2
:10003000D30F000800000000DF0F0008EB0F0008DE
:1000400061100008611000086110000861100008CC
:1000500061100008611000086110000861100008BC
:1000600061100008611000086110000861100008AC
:10007000611000086110000861100008611000089C
:10008000611000086110000861100008611000088C
:10009000611000086110000861100008611000087C
:1000A000611000086110000861100008611000086C
:1000B000F90F00086110000800000000611000083E
:1000C000611000080000000000000000611000083E
:1000D000000000006110000861100008000000002E
:1000E00061100008611000086110000800000000A5
:1000F0000000000000000000000000000000000000
:0C01000000000000000000005FF808F1A3
:10010C0010B5054C237833B9044B13B10448AFF345
:10011C0000800123237010BD480000200000000067
:10012C00B826000808B5034B1BB103490348AFF3CD
:10013C00008008BD000000004C000020B82600081C
:10014C0080B400AF064B1B68012B04D1044B00227A
:10015C001A60012300E000231846BD4680BC70479E
:10016C006400002080B400AF034B01221A6000BF72
:10017C00BD4680BC704700BF6400002080B500AF56
:10018C001F4B1B681F4A13601F4B1B681C4A1360D4
:10019C004FF400511D4801F049FA03461A461A4B18
:1001AC001A60174B1A68184B1B689A4226D1144BCD
:1001BC001A68144B1B689A4220D1124B1A68144BC4
:1001CC001B689A420ED00F4B1B68114A1360104BE0
:1001DC001B68002B12D10F4B4FF496721A60FFF76D
:1001EC00C1FF0BE00B4B1B68013B0A4A1360094B28
:1001FC001B68002B02D1064B01221A6000BF80BD88
:10020C000400002008000020000000200010014025
:10021C000C0000201000002080B400AF064B1B68BF
:10022C00012B04D1044B00221A60012300E00023AF
:10023C001846BD4680BC70476800002080B400AFF3
:10024C00034B01221A6000BFBD4680BC704700BF43
:10025C006800002080B500AF214B1B68214A136059
:10026C00214B1B681E4A13604FF480411F4801F05C
:10027C00DDF903461A461C4B1A60194B1A681A4BC7
:10028C001B689A422AD1164B1A68164B1B689A4265
:10029C0024D1144B1A68164B1B689A420ED0114B82
:1002AC001B68134A1360124B1B68002B16D1114BA1
:1002BC004FF496721A60FFF7C1FF0FE00D4B1B68ED
:1002CC00013B0C4A13600B4B1B68002B06D1064BF1
:1002DC001B68012B02D1064B01221A6000BF80BDA6
:1002EC00180000201C000020140000200010014009
:1002FC00200000202400002080B400AF064B1B68B7
:10030C00012B04D1044B00221A60012300E00023CE
:10031C001846BD4680BC70476C00002080B400AF0E
:10032C00034B01221A6000BFBD4680BC704700BF62
:10033C006C00002080B500AF1F4B1B681F4A136078
:10034C001F4B1B681C4A13604FF400411D4801F001
:10035C006DF903461A461A4B1A60174B1A68184B5C
:10036C001B689A4226D1144B1A68144B1B689A428C
:10037C0020D1124B1A68144B1B689A420ED00F4BAB
:10038C001B68114A1360104B1B68002B12D10F4BCA
:10039C004FF496721A60FFF7C1FF0BE00B4B1B6812
:1003AC00013B0A4A1360094B1B68002B02D1064B18
:1003BC0001221A6000BF80BD2C00002030000020FC
:1003CC0028000020001001403400002038000020DC
:1003DC0080B500AFAF4B1B68032B00F2508101A21C
:1003EC0052F823F001040008CD0400086F05000842
:1003FC00FD050008A84B1B68012B07D1642000F0F9
:10040C00BFFCA64B1B68013BA44A1360FFF798FE88
:10041C000346012B09D1A14B00221A60642000F085
:10042C00AFFC4FF42F7000F035FD9C4B1B68002B7C
:10043C0002DA9A4B09221A60FFF7EEFE0346012BF3
:10044C0009D1944B01221A60642000F099FC4FF4FE
:10045C007A7000F01FFDFFF74FFF0346012B09D107
:10046C008C4B02221A60642000F08AFC4FF47A70E4
:10047C0000F010FD8A4B1B68012B0FD1FFF7CCFE4F
:10048C000346002B0AD1FFF737FF0346002B05D19B
:10049C00804B03221A60642000F072FC814B1B68B5
:1004AC00012B40F0EE807D4B1B68642202FB03F3B2
:1004BC007D4A1360794B1B68184600F0BDFCE0E0E8
:1004CC00FFF7AAFE0346012B18D1744B1B68092BAE
:1004DC0003DD724B4FF0FF321A60704B1B681846ED
:1004EC0000F0E6F86D4B1B6801336C4A1360642016
:1004FC0000F046FC4FF47A7000F0CCFCFFF7FCFEE9
:10050C000346012B09D1634B02221A60642000F0D0
:10051C0037FC4FF47A7000F0BDFCFFF711FE034678
:10052C00012B09D15B4B00221A60642000F028FCDF
:10053C004FF47A7000F0AEFC5A4B1B68012B40F064
:10054C00A280544B00221A60544B1B68642202FB9D
:10055C0003F3554A1360544B1B68184600F06CFCAF
:10056C0091E0FFF7C9FE0346012B12D14B4B1B68E0
:10057C00002B02DC494B0A221A60484B1B68013BDA
:10058C00464A1360642000F0FBFB4FF47A7000F0D5
:10059C0081FCFFF741FE0346012B06D13D4B0122A6
:1005AC001A604FF47A7000F075FCFFF7C9FD034632
:1005BC00012B09D1374B00221A60642000F0E0FBBC
:1005CC004FF47A7000F066FC364B1B68012B5CD143
:1005DC00304B00221A60314B1B68642202FB03F380
:1005EC00314A1360304B1B68184600F025FC4CE078
:1005FC002E4B1B68002B0BD1274B1B68012B07D1F3
:10060C00264B1B68013B254A1360284B01221A60BC
:10061C00FFF702FE0346012B0CD11E4B01221A6080
:10062C00642000F0ADFB4FF42F7000F033FC1F4B37
:10063C0000221A60FFF760FE0346012B0CD1154B0C
:10064C0002221A60642000F09BFB4FF42F7000F024
:10065C0021FC164B00221A60FFF772FD0346012B9A
:10066C0015D10C4B00221A60642000F089FB4FF46A
:10067C002F7000F00FFC0D4B00221A6007E000BF3A
:10068C0006E000BF04E000BF02E000BF00E000BFD6
:10069C0000BF80BD78000020840000207C0000207A
:1006AC00940000209C000020A0000020700000207E
:1006BC0080B582B000AF78607B68092B00F2808136
:1006CC0001A252F823F000BFFD0600084507000800
:1006DC008D070008D50700081D08000865080008EC
:1006EC00AD080008F50800083D0900088509000858
:1006FC0000220121B44800F0B0FF00220221B248D0
:10070C0000F0ABFF00220421AF4800F0A6FF00224E
:10071C000821AD4800F0A1FF00221021AA4800F0EA
:10072C009CFF00222021A84800F097FF01224021C5
:10073C00A54800F092FF43E101220121A24800F0FC
:10074C008CFF00220221A04800F087FF0022042128
:10075C009D4800F082FF012208219B4800F07DFF9C
:10076C0001221021984800F078FF012220219648A0
:10077C0000F073FF01224021934800F06EFF1FE14F
:10078C0000220121904800F068FF002202218E48CF
:10079C0000F063FF012204218B4800F05EFF002271
:1007AC000821894800F059FF00221021864800F0EA
:1007BC0054FF01222021844800F04FFF00224021E9
:1007CC00814800F04AFFFBE0002201217E4800F046
:1007DC0044FF002202217C4800F03FFF002204214C
:1007EC00794800F03AFF00220821774800F035FFE5
:1007FC0001221021744800F030FF012220217248A0
:10080C0000F02BFF002240216F4800F026FFD7E0BC
:10081C00012201216C4800F020FF002202216A48CD
:10082C0000F01BFF00220421674800F016FF012294
:10083C000821654800F011FF01221021624800F0E8
:10084C000CFF00222021604800F007FF002240210D
:10085C005D4800F002FFB3E0002201215A4800F08D
:10086C00FCFE01220221584800F0F7FE0022042170
:10087C00554800F0F2FE00220821534800F0EDFE2E
:10088C0001221021504800F0E8FE002220214E48A1
:10089C0000F0E3FE002240214B4800F0DEFE8FE02A
:1008AC0000220121484800F0D8FE012202214648CE
:1008BC0000F0D3FE00220421434800F0CEFE0022BB
:1008CC000821414800F0C9FE002210213E4800F0EA
:1008DC00C4FE002220213C4800F0BFFE0022402133
:1008EC00394800F0BAFE6BE000220121364800F0D6
:1008FC00B4FE00220221344800F0AFFE0022042195
:10090C00314800F0AAFE012208212F4800F0A5FE74
:10091C00012210212C4800F0A0FE012220212A489F
:10092C0000F09BFE01224021274800F096FE47E094
:10093C0000220121244800F090FE002202212248CE
:10094C0000F08BFE002204211F4800F086FE0022DE
:10095C0008211D4800F081FE002210211A4800F0E9
:10096C007CFE00222021184800F077FE0022402156
:10097C00154800F072FE23E000220121124800F01D
:10098C006CFE00220221104800F067FE00220421B8
:10099C000D4800F062FE002208210B4800F05DFEBD
:1009AC0001221021084800F058FE002220210648A0
:1009BC0000F053FE00224021034800F04EFE00BF21
:1009CC0000BF0837BD4680BD000C014080B500AFAC
:1009DC0000F042FB00F0D4F800F05AF900F00CF9EA
:1009EC0001222021494800F038FE0022802147488E
:1009FC0000F033FE01224021444800F02EFE00227C
:100A0C000221424800F029FE002208213F4800F054
:100A1C0024FE002204213D4800F01FFE00224FF46A
:100A2C0000713B4800F019FE00224FF480613848F9
:100A3C0000F013FE00224FF40061354800F00DFE6B
:100A4C0000224FF48051324800F007FE00224FF490
:100A5C0000512F4800F001FE00224FF480412C4839
:100A6C0000F0FBFD00224FF40041294800F0F5FD99
:100A7C0000220121264800F0F0FD0022022124482A
:100A8C0000F0EBFD00220421214800F0E6FD0022DD
:100A9C0008211F4800F0E1FD002210211C4800F045
:100AAC00DCFD002220211A4800F0D7FD0022402155
:100ABC00174800F0D2FD00224FF40071134800F0EB
:100ACC00CCFD00224FF48061104800F0C6FD0022DE
:100ADC004FF400610D4800F0C0FD00224FF480512E
:100AEC000A4800F0BAFD0B4801F020FA0A4B092223
:100AFC001A600A4B00221A60094B00221A6064200B
:100B0C0000F03EF9642000F04FF9FEE700080140C8
:100B1C00000C0140A40000207C0000207800002084
:100B2C007400002080B582B000AF7860114B1B6858
:100B3C001846FFF7BDFD00F04BF900F063F900F02B
:100B4C008FF900F0BBF9FFF719FBFFF783FBFFF7F9
:100B5C00F1FBFFF73DFC084B1B68012B06D1202154
:100B6C00064800F092FD642000F01EF900BF083723
:100B7C00BD4680BD7C0000208C0000200008014098
:100B8C0080B590B000AF07F1180328220021184659
:100B9C0001F084FD3B1D00221A605A609A60DA60F5
:100BAC001A610223BB610123BB621023FB62002389
:100BBC007B6307F11803184600F080FD0346002BF9
:100BCC0001D000F0D7F80F237B600023BB6000231B
:100BDC00FB6000233B6100237B613B1D0021184619
:100BEC0000F0ECFF0346002B01D000F0C3F800BF6F
:100BFC004037BD4680BD000080B586B000AF07F120
:100C0C00080300221A605A609A60DA603B460022A0
:100C1C001A605A601D4B4FF080421A601B4B41F614
:100C2C003F725A60194B00229A60184B0922DA6005
:100C3C00164B00221A61154B00229A61134801F0E1
:100C4C0025F90346002B01D000F094F84FF48053A3
:100C5C00BB6007F1080319460C4801F0BBFA0346C8
:100C6C00002B01D000F086F800233B6000237B6052
:100C7C003B461946054801F083FC0346002B01D086
:100C8C0000F078F800BF1837BD4680BDA4000020E6
:100C9C0080B588B000AF07F1100300221A605A60CB
:100CAC009A60DA602F4B9B692E4A43F010039361D4
:100CBC002C4B9B6903F01003FB60FB68294B9B6971
:100CCC00284A43F004039361264B9B6903F0040309
:100CDC00BB60BB68234B9B69224A43F008039361BA
:100CEC00204B9B6903F008037B607B68002241F674
:100CFC00EF611D4800F0B1FC00224FF6FF711B485C
:100D0C0000F0ABFC4FF460433B6100237B6101239B
:100D1C00BB6107F110031946154800F00DFB41F6B5
:100D2C00EF633B6101237B610023BB610223FB6109
:100D3C0007F1100319460C4800F0FEFA4FF6FF734A
:100D4C003B6101237B610023BB610223FB6107F143
:100D5C0010031946054800F0EFFA00BF2037BD46D6
:100D6C0080BD00BF0010024000080140000C014093
:100D7C000010014080B400AF72B600BFFEE7000067
:100D8C0080B483B000AF7860054A7B681360054B74
:100D9C0000221A6000BF0C37BD4680BC704700BFF4
:100DAC00800000208400002080B483B000AF786005
:100DBC00054A7B681360054B00221A6000BF0C3794
:100DCC00BD4680BC704700BF880000208C0000200E
:100DDC0080B400AF094B1B68002B0BDD074B1B6865
:100DEC00013B064A1360054B1B68002B02DC044BCD
:100DFC0001221A6000BFBD4680BC704780000020F5
:100E0C008400002080B400AF094B1B68002B0BDD65
:100E1C00074B1B68013B064A1360054B1B68002BF4
:100E2C0002DC044B01221A6000BFBD4680BC704737
:100E3C00880000208C00002080B483B000AF786064
:100E4C00054A7B681360054B00221A6000BF0C3703
:100E5C00BD4680BC704700BF90000020940000206D
:100E6C0080B400AF094B1B68002B0BDD074B1B68D4
:100E7C00013B064A1360054B1B68002B02DC044B3C
:100E8C0001221A6000BFBD4680BC70479000002054
:100E9C009400002080B483B000AF7860054A7B6872
:100EAC001360054B00221A6000BF0C37BD4680BC96
:100EBC00704700BF980000209C00002080B400AF59
:100ECC00094B1B68002B0BDD074B1B68013B064ACB
:100EDC001360054B1B68002B02DC044B01221A60CB
:100EEC0000BFBD4680BC7047980000209C000020CD
:100EFC0080B485B000AF154B9B69144A43F00103D5
:100F0C009361124B9B6903F00103BB60BB680F4BF1
:100F1C00DB690E4A43F08053D3610C4BDB6903F061
:100F2C0080537B607B680A4B5B68FB60FB6823F03B
:100F3C00E063FB60FB6843F00073FB60044AFB68F2
:100F4C00536000BF1437BD4680BC70470010024090
:100F5C000000014080B584B000AF78607B681B68EE
:100F6C00B3F1804F13D10C4BDB690B4A43F00103F7
:100F7C00D361094BDB6903F00103FB60FB680022C2
:100F8C0000211C2000F0A1F91C2000F0BAF900BFD0
:100F9C001037BD4680BD00BF0010024080B400AFCA
:100FAC00FEE780B400AFFEE780B400AFFEE780B48C
:100FBC0000AFFEE780B400AFFEE780B400AF00BF27
:100FCC00BD4680BC704780B400AF00BFBD4680BC3E
:100FDC00704780B400AF00BFBD4680BC704780B581
:100FEC0000AF00F07FF800BF80BD000080B500AFFF
:100FFC00024800F0E7FF00BF80BD00BFA400002046
:10100C0080B400AF00BFBD4680BC70470C480D4992
:10101C000D4A002302E0D458C4500433C4188C4247
:10102C00F9D30A4A0A4C002301E013600432A242AD
:10103C00FBD3FFF7E5FF01F00DFBFFF7C7FC704793
:10104C000000002048000020F8260008480000207E
:10105C00F0000020FEE7000080B500AF084B1B68D5
:10106C00074A43F010031360032000F023F90F200C
:10107C0000F008F8FFF73CFF0023184680BD00BFC6
:10108C000020024080B582B000AF7860124B1A6825
:10109C00124B1B7819464FF47A73B3FBF1F3B2FB86
:1010AC00F3F3184600F03BF90346002B01D0012363
:1010BC000EE07B680F2B0AD8002279684FF0FF30C6
:1010CC0000F003F9064A7B681360002300E001235B
:1010DC0018460837BD4680BD3C0000204400002067
:1010EC004000002080B400AF054B1B781A46054B1E
:1010FC001B681344034A136000BFBD4680BC704795
:10110C0044000020EC00002080B400AF024B1B68B0
:10111C001846BD4680BC7047EC00002080B485B0FA
:10112C0000AF78607B6803F00703FB600C4BDB6857
:10113C00BB60BA684FF6FF031340BB60FB681A0232
:10114C00BB68134343F0BF6343F40033BB60044AF2
:10115C00BB68D36000BF1437BD4680BC704700BF6E
:10116C0000ED00E080B400AF044BDB681B0A03F019
:10117C0007031846BD4680BC704700BF00ED00E079
:10118C0080B483B000AF0346FB7197F90730002B96
:10119C000BDBFB7903F01F02064997F907305B095B
:1011AC00012000FA02F241F8232000BF0C37BD46A3
:1011BC0080BC704700E100E080B483B000AF034610
:1011CC003960FB7197F90730002B0ADB3B68DAB208
:1011DC000C4997F907301201D2B20B4483F8002363
:1011EC000AE03B68DAB20849FB7903F00F03043BD1
:1011FC001201D2B20B441A7600BF0C37BD4680BC2C
:10120C00704700BF00E100E000ED00E080B489B061
:10121C0000AFF860B9607A60FB6803F00703FB610C
:10122C00FB69C3F10703042B28BF0423BB61FB69D3
:10123C000433062B02D9FB69033B00E000237B61DE
:10124C004FF0FF32BB6902FA03F3DA43BB681A4072
:10125C007B699A404FF0FF317B6901FA03F3D94364
:10126C007B680B40134318462437BD4680BC70473F
:10127C0080B582B000AF78607B68013BB3F1807FB2
:10128C0001D301230FE00A4A7B68013B53600F2115
:10129C004FF0FF30FFF790FF054B00229A60044B94
:1012AC0007221A60002318460837BD4680BD00BFD0
:1012BC0010E000E080B582B000AF78607868FFF78E
:1012CC002DFF00BF0837BD4680BD80B586B000AF8E
:1012DC000346B9607A60FB7300237B61FFF742FF22
:1012EC0078617A68B9687869FFF790FF024697F9D8
:1012FC000F3011461846FFF75FFF00BF1837BD4689
:10130C0080BD80B582B000AF0346FB7197F9073002
:10131C001846FFF735FF00BF0837BD4680BD80B5C6
:10132C0082B000AF78607868FFF7A2FF03461846DA
:10133C000837BD4680BD000080B48BB000AF78602C
:10134C00396000237B6200233B6248E101227B6A07
:10135C0002FA03F3FB613B681B68FA691340BB613B
:10136C00BA69FB699A4240F037813B685B68A34AD3
:10137C0093425ED0A14A934275D8A14A934258D069
:10138C009F4A93426FD89F4A934252D09D4A9342B0
:10139C0069D89D4A93424CD09B4A934263D89B4A4E
:1013AC00934246D0994A93425DD8122B2AD8122BDD
:1013BC0059D801A252F823F03F1400081914000860
:1013CC002B1400086D140008731400087314000823
:1013DC0073140008731400087314000873140008C5
:1013EC0073140008731400087314000873140008B5
:1013FC0073140008731400087314000821140008F7
:10140C0035140008824A934213D02CE03B68DB6809
:10141C003B6229E03B68DB6804333B6224E03B68B9
:10142C00DB6808333B621FE03B68DB680C333B62D4
:10143C001AE03B689B68002B02D104233B6213E04B
:10144C003B689B68012B05D108233B627B68FA69DA
:10145C001A6109E008233B627B68FA695A6103E070
:10146C0000233B6200E000BFBB69FF2B01D87B6807
:10147C0001E07B6804337B61BB69FF2B02D87B6A7C
:10148C009B0002E07B6A083B9B003B617B691A680E
:10149C000F213B6901FA03F3DB431A40396A3B69BC
:1014AC0001FA03F31A437B691A603B685B6803F02B
:1014BC008053002B00F09080564B9B69554A43F0AB
:1014CC0001039361534B9B6903F00103BB60BB6841
:1014DC00514A7B6A9B08023352F82330FB607B6ACB
:1014EC0003F003039B000F2202FA03F3DB43FA68B9
:1014FC001340FB607B68494A93420DD07B68484A95
:10150C00934207D07B68474A934201D1022304E0FF
:10151C00032302E0012300E000237A6A02F00302B5
:10152C0092009340FA681343FB603B497B6A9B082B
:10153C000233FA6841F823203B685B6803F480337C
:10154C00002B06D0384B1A683749BB6913430B6024
:10155C0006E0354B1A68BB69DB43334913400B601B
:10156C003B685B6803F40033002B06D02E4B5A68A3
:10157C002D49BB6913434B6006E02B4B5A68BB6982
:10158C00DB43294913404B603B685B6803F48013D1
:10159C00002B06D0244B9A682349BB6913438B60FC
:1015AC0006E0214B9A68BB69DB431F4913408B60F3
:1015BC003B685B6803F40013002B06D01A4BDA6807
:1015CC001949BB691343CB6006E0174BDA68BB695A
:1015DC00DB4315491340CB607B6A01337B623B686C
:1015EC001A687B6A22FA03F3002B7FF4AFAE00BFBC
:1015FC0000BF2C37BD4680BC704700BF00003210C6
:10160C000000311000002210000021100000121008
:10161C0000001110001002400000014000080140C1
:10162C00000C0140001001400004014080B485B062
:10163C0000AF78600B467B807B689A687B88134090
:10164C00002B02D00123FB7301E00023FB73FB7B17
:10165C0018461437BD4680BC704780B483B000AFC9
:10166C0078600B467B8013467B707B78002B03D015
:10167C007A887B681A6103E07B881A047B681A619C
:10168C0000BF0C37BD4680BC704780B485B000AF3E
:10169C0078600B467B807B68DB68FB607A88FB6834
:1016AC0013401A04FB68D9437B880B401A437B68B0
:1016BC001A6100BF1437BD4680BC704780B586B038
:1016CC0000AF78607B68002B01D101236CE27B6852
:1016DC001B6803F00103002B00F08780924B5B68C2
:1016EC0003F00C03042B0CD08F4B5B6803F00C0342
:1016FC00082B12D18C4B5B6803F48033B3F5803F1D
:10170C000BD1894B1B6803F40033002B6CD07B6826
:10171C005B68002B68D1012346E27B685B68B3F5FC
:10172C00803F06D1804B1B687F4A43F480331360A3
:10173C002EE07B685B68002B0CD17B4B1B687A4AD4
:10174C0023F480331360784B1B68774A23F480238F
:10175C0013601DE07B685B68B3F5A02F0CD1724B56
:10176C001B68714A43F4802313606F4B1B686E4AED
:10177C0043F4803313600BE06B4B1B686A4A23F411
:10178C0080331360684B1B68674A23F48023136013
:10179C007B685B68002B13D0FFF7B6FC386108E060
:1017AC00FFF7B2FC02463B69D31A642B01D9032321
:1017BC00FAE15D4B1B6803F40033002BF0D014E00E
:1017CC00FFF7A2FC386108E0FFF79EFC02463B697C
:1017DC00D31A642B01D90323E6E1534B1B6803F4A2
:1017EC000033002BF0D100E000BF7B681B6803F0D6
:1017FC000203002B63D04C4B5B6803F00C03002BF3
:10180C000BD0494B5B6803F00C03082B1CD1464BE7
:10181C005B6803F48033002B16D1434B1B6803F039
:10182C000203002B05D07B681B69012B01D001231F
:10183C00BAE13D4B1B6823F0F8027B685B69DB0067
:10184C00394913430B603AE07B681B69002B20D0AD
:10185C00364B01221A60FFF757FC386108E0FFF79E
:10186C0053FC02463B69D31A022B01D903239BE19B
:10187C002D4B1B6803F00203002BF0D02A4B1B6886
:10188C0023F0F8027B685B69DB00274913430B608C
:10189C0015E0264B00221A60FFF736FC386108E091
:1018AC00FFF732FC02463B69D31A022B01D9032302
:1018BC007AE11D4B1B6803F00203002BF0D17B680F
:1018CC001B6803F00803002B3AD07B689B69002B44
:1018DC0019D0174B01221A60FFF716FC386108E08B
:1018EC00FFF712FC02463B69D31A022B01D90323E2
:1018FC005AE10D4B5B6A03F00203002BF0D0012080
:10190C0000F0A6FA1CE00A4B00221A60FFF7FCFB61
:10191C0038610FE0FFF7F8FB02463B69D31A022B44
:10192C0008D9032340E100BF0010024000004242EE
:10193C00800442429E4B5B6A03F00203002BE9D108
:10194C007B681B6803F00403002B00F0A6800023C7
:10195C00FB75974BDB6903F08053002B0DD1944B37
:10196C00DB69934A43F08053D361914BDB6903F0FD
:10197C008053BB60BB680123FB758E4B1B6803F463
:10198C008073002B18D18B4B1B688A4A43F48073ED
:10199C001360FFF7B9FB386108E0FFF7B5FB0246AF
:1019AC003B69D31A642B01D90323FDE0814B1B68DF
:1019BC0003F48073002BF0D07B68DB68012B06D11D
:1019CC007B4B1B6A7A4A43F0010313622DE07B6860
:1019DC00DB68002B0CD1764B1B6A754A23F0010394
:1019EC001362734B1B6A724A23F0040313621CE0EC
:1019FC007B68DB68052B0CD16D4B1B6A6C4A43F082
:101A0C00040313626A4B1B6A694A43F001031362B5
:101A1C000BE0674B1B6A664A23F001031362644BAD
:101A2C001B6A634A23F0040313627B68DB68002B98
:101A3C0015D0FFF769FB38610AE0FFF765FB02463A
:101A4C003B69D31A41F28832934201D90323ABE0AC
:101A5C00574B1B6A03F00203002BEED014E0FFF788
:101A6C0053FB38610AE0FFF74FFB02463B69D31A80
:101A7C0041F28832934201D9032395E04C4B1B6A07
:101A8C0003F00203002BEED1FB7D012B05D1484B5B
:101A9C00DB69474A23F08053D3617B68DB69002BF9
:101AAC0000F08180424B5B6803F00C03082B61D083
:101ABC007B68DB69022B46D13F4B00221A60FFF793
:101ACC0023FB386108E0FFF71FFB02463B69D31A82
:101ADC00022B01D9032367E0354B1B6803F000731D
:101AEC00002BF0D17B681B6AB3F5803F08D1304BDB
:101AFC005B6823F400327B689B682D4913434B6071
:101B0C002B4B5B6823F474127B68196A7B685B6AE5
:101B1C000B43274913434B60274B01221A60FFF7F5
:101B2C00F3FA386108E0FFF7EFFA02463B69D31A83
:101B3C00022B01D9032337E01D4B1B6803F0007304
:101B4C00002BF0D02FE01C4B00221A60FFF7DCFAC0
:101B5C00386108E0FFF7D8FA02463B69D31A022B2A
:101B6C0001D9032320E0124B1B6803F00073002BF8
:101B7C00F0D118E07B68DB69012B01D1012313E064
:101B8C000B4B5B68FB60FB6803F480327B681B6A61
:101B9C009A4206D1FB6803F470127B685B6A9A4226
:101BAC0001D0012300E0002318461837BD4680BD44
:101BBC0000100240007000406000424280B584B0CA
:101BCC0000AF786039607B68002B01D10123D0E035
:101BDC006A4B1B6803F007033A689A4210D9674BAB
:101BEC001B6823F0070265493B6813430B60634B8A
:101BFC001B6803F007033A689A4201D00123B8E04E
:101C0C007B681B6803F00203002B20D07B681B68E9
:101C1C0003F00403002B05D0594B5B68584A43F47E
:101C2C00E06353607B681B6803F00803002B05D04E
:101C3C00534B5B68524A43F460535360504B5B68A0
:101C4C0023F0F0027B689B684D4913434B607B6823
:101C5C001B6803F00103002B40D07B685B68012BF1
:101C6C0007D1474B1B6803F40033002B15D101231C
:101C7C007FE07B685B68022B07D1414B1B6803F04C
:101C8C000073002B09D1012373E03D4B1B6803F05B
:101C9C000203002B01D101236BE0394B5B6823F06D
:101CAC0003027B685B68364913434B60FFF72CFAE1
:101CBC00F8600AE0FFF728FA0246FB68D31A41F2F3
:101CCC008832934201D9032353E02D4B5B6803F018
:101CDC000C027B685B689B009A42EBD1274B1B681C
:101CEC0003F007033A689A4210D2244B1B6823F086
:101CFC00070222493B6813430B60204B1B6803F01F
:101D0C0007033A689A4201D0012332E07B681B68D2
:101D1C0003F00403002B08D0194B5B6823F4E0623A
:101D2C007B68DB68164913434B607B681B6803F0C8
:101D3C000803002B09D0124B5B6823F460527B68BC
:101D4C001B69DB000E4913434B6000F021F802467F
:101D5C000B4B5B681B0903F00F030A49CB5C22FA9F
:101D6C0003F3094A1360094B1B681846FFF78AF9FD
:101D7C00002318461037BD4680BD00BF002002402E
:101D8C0000100240E02600083C000020400000202B
:101D9C0090B48AB000AF2A4B3C1D0FCB84E80F00E7
:101DAC0040F201233B800023FB610023BB61002335
:101DBC007B6200237B6100233B62224B5B68FB61EF
:101DCC00FB6903F00C03042B02D0082B03D02DE08D
:101DDC001D4B3B622DE0FB699B0C03F00F0307F1DD
:101DEC002802134413F8243C7B61FB6903F4803311
:101DFC00002B13D0134B5B685B0C03F0010307F152
:101E0C002802134413F8283CBB617B690E4A02FB81
:101E1C0003F2BB69B2FBF3F37B6204E07B690B4A10
:101E2C0002FB03F37B627B6A3B6202E0064B3B6284
:101E3C0000BF3B6A18462837BD4690BC704700BFB0
:101E4C00D02600080010024000127A0000093D0064
:101E5C0080B485B000AF78600A4B1B680A4AA2FBBD
:101E6C0003235B0A7A6802FB03F3FB6000BFFB6889
:101E7C005A1EFA60002BF9D100BF00BF1437BD46C3
:101E8C0080BC70473C000020D34D621080B582B0FE
:101E9C0000AF78607B68002B01D1012341E07B68A7
:101EAC0093F83D30DBB2002B06D17B68002283F81F
:101EBC003C207868FFF74EF87B68022283F83D20BF
:101ECC007B681A687B6804331946104600F06AFA7E
:101EDC007B68012283F846207B68012283F83E2030
:101EEC007B68012283F83F207B68012283F8402025
:101EFC007B68012283F841207B68012283F8422011
:101F0C007B68012283F843207B68012283F84420FC
:101F1C007B68012283F845207B68012283F83D20F1
:101F2C00002318460837BD4680BD000080B485B03C
:101F3C0000AF78607B6893F83D30DBB2012B01D0A9
:101F4C00012335E07B68022283F83D207B681B6807
:101F5C00DA687B681B6842F00102DA607B681B68F8
:101F6C00164A934209D07B681B68B3F1804F04D0AA
:101F7C007B681B68124A934211D17B681B689B6873
:101F8C0003F00703FB60FB68062B10D07B681B6813
:101F9C001A687B681B6842F001021A6007E07B68D4
:101FAC001B681A687B681B6842F001021A600023E8
:101FBC0018461437BD4680BC704700BF002C01404A
:101FCC000004004080B582B000AF78607B681B686D
:101FDC001B6903F00203022B22D17B681B68DB68B0
:101FEC0003F00203022B1BD17B681B686FF002020B
:101FFC001A617B6801221A777B681B689B6903F066
:10200C000303002B03D0786800F0B1F905E0786881
:10201C0000F0A4F9786800F0B3F97B6800221A7715
:10202C007B681B681B6903F00403042B22D17B68BB
:10203C001B68DB6803F00403042B1BD17B681B6853
:10204C006FF004021A617B6802221A777B681B68A6
:10205C009B6903F44073002B03D0786800F087F978
:10206C0005E0786800F07AF9786800F089F97B6807
:10207C0000221A777B681B681B6903F00803082B86
:10208C0022D17B681B68DB6803F00803082B1BD18B
:10209C007B681B686FF008021A617B6804221A7750
:1020AC007B681B68DB6903F00303002B03D07868A3
:1020BC0000F05DF905E0786800F050F9786800F000
:1020CC005FF97B6800221A777B681B681B6903F039
:1020DC001003102B22D17B681B68DB6803F0100304
:1020EC00102B1BD17B681B686FF010021A617B6888
:1020FC0008221A777B681B68DB6903F44073002B9A
:10210C0003D0786800F033F905E0786800F026F920
:10211C00786800F035F97B6800221A777B681B68B9
:10212C001B6903F00103012B0ED17B681B68DB6874
:10213C0003F00103012B07D17B681B686FF00102D0
:10214C001A617868FEF7EEFC7B681B681B6903F06C
:10215C008003802B0ED17B681B68DB6803F0800347
:10216C00802B07D17B681B686FF080021A6178683E
:10217C0000F067FA7B681B681B6903F04003402B77
:10218C000ED17B681B68DB6803F04003402B07D142
:10219C007B681B686FF040021A61786800F0F9F8F0
:1021AC007B681B681B6903F02003202B0ED17B6816
:1021BC001B68DB6803F02003202B07D17B681B68AE
:1021CC006FF020021A61786800F032FA00BF08370D
:1021DC00BD4680BD80B584B000AF786039607B6847
:1021EC0093F83C30012B01D10223B3E07B68012230
:1021FC0083F83C207B68022283F83D207B681B68B7
:10220C009B68FB60FB6823F07703FB60FB6823F49F
:10221C007F43FB607B681B68FA689A603B681B68AD
:10222C00B3F5005F3ED0B3F5005F00F28780B3F5E5
:10223C00805F00F08580B3F5805F7FD8702B1AD05B
:10224C00702B7BD8602B50D0602B77D8502B3CD088
:10225C00502B73D8402B58D0402B6FD8302B64D0D8
:10226C00302B6BD8202B60D0202B67D8002B5CD068
:10227C00102B5AD062E07B6818683B6899683B6801
:10228C005A683B68DB6800F05CF97B681B689B68EC
:10229C00FB60FB6843F07703FB607B681B68FA68A4
:1022AC009A604EE07B6818683B6899683B685A688E
:1022BC003B68DB6800F045F97B681B689A687B68B3
:1022CC001B6842F480429A603BE07B6818683B686C
:1022DC0059683B68DB681A4600F0BCF87B681B68E1
:1022EC005021184600F013F92BE07B6818683B6806
:1022FC0059683B68DB681A4600F0DAF87B681B68A3
:10230C006021184600F003F91BE07B6818683B68F5
:10231C0059683B68DB681A4600F09CF87B681B68C0
:10232C004021184600F0F3F80BE07B681A683B6814
:10233C001B681946104600F0EAF802E000BF00E006
:10234C0000BF7B68012283F83D207B68002283F864
:10235C003C20002318461037BD4680BD80B483B0A6
:10236C0000AF786000BF0C37BD4680BC704780B4AE
:10237C0083B000AF786000BF0C37BD4680BC70479F
:10238C0080B483B000AF786000BF0C37BD4680BC12
:10239C00704780B483B000AF786000BF0C37BD4687
:1023AC0080BC704780B485B000AF786039607B68C2
:1023BC001B68FB607B68254A934207D07B68B3F1AE
:1023CC00804F03D07B68224A934208D1FB6823F0EC
:1023DC007003FB603B685B68FA681343FB607B68C7
:1023EC001A4A934207D07B68B3F1804F03D07B68C5
:1023FC00174A934208D1FB6823F44073FB603B6897
:10240C00DB68FA681343FB60FB6823F080023B68CF
:10241C005B691343FB607B68FA681A603B689A68D7
:10242C007B68DA623B681A687B689A627B68074A49
:10243C00934203D13B681A697B681A637B6801225B
:10244C005A6100BF1437BD4680BC7047002C014058
:10245C000004004080B487B000AFF860B9607A60C7
:10246C00FB681B6A7B61FB681B6A23F00102FB683B
:10247C001A62FB689B693B613B6923F0F0033B618B
:10248C007B681B013A6913433B617B6923F00A03A8
:10249C007B617A69BB6813437B61FB683A699A611B
:1024AC00FB687A691A6200BF1C37BD4680BC704756
:1024BC0080B487B000AFF860B9607A60FB681B6AC3
:1024CC0023F01002FB681A62FB689B697B61FB6856
:1024DC001B6A3B617B6923F470437B617B681B0344
:1024EC007A6913437B613B6923F0A0033B61BB68B2
:1024FC001B013A6913433B61FB687A699A61FB687B
:10250C003A691A6200BF1C37BD4680BC704780B464
:10251C0085B000AF786039607B689B68FB60FB68B6
:10252C0023F07003FB603A68FB68134343F0070326
:10253C00FB607B68FA689A6000BF1437BD4680BCAC
:10254C00704780B487B000AFF860B9607A603B60C8
:10255C00FB689B687B617B6923F47F437B613B68F1
:10256C001A027B681A43BB6813437A6913437B6175
:10257C00FB687A699A6000BF1C37BD4680BC704707
:10258C0080B485B000AF786039607B6893F83C30DC
:10259C00012B01D1022341E07B68012283F83C200E
:1025AC007B68022283F83D207B681B685B68FB60BC
:1025BC007B681B689B68BB60FB6823F07003FB6047
:1025CC003B681B68FA681343FB607B681B68FA68FE
:1025DC005A607B681B68144A934209D07B681B685D
:1025EC00B3F1804F04D07B681B68104A93420CD126
:1025FC00BB6823F08003BB603B685B68BA6813431D
:10260C00BB607B681B68BA689A607B68012283F8A0
:10261C003D207B68002283F83C20002318461437A9
:10262C00BD4680BC704700BF002C01400004004038
:10263C0080B483B000AF786000BF0C37BD4680BC5F
:10264C00704780B483B000AF786000BF0C37BD46D4
:10265C0080BC704770B500260C4D0D4C641BA4104B
:10266C00A64209D100F022F800260A4D0A4C641B40
:10267C00A410A64205D170BD55F8043B984701360D
:10268C00EEE755F8043B98470136F2E7F0260008D0
:10269C00F0260008F0260008F42600080346024441
:1026AC00934200D1704703F8011BF9E7F8B500BF5E
:1026BC00F8BC08BC9E467047F8B500BFF8BC08BC17
:0426CC009E4670476F
:1026D00002030405060708090A0B0C0D0E0F101063
:1026E00000000000000000000102030406070809C2
:0426F00031010008AC
:0426F4000D010008CC
:1026F80001000000010000000100000001000000CE
:102708002C01000001000000010000000100000091
:10271800010000002C010000010000000100000081
:1027280001000000010000002C0100000024F4005A
:08273800100000000100000088
:0400000508001019C6
:00000001FF
